:02000002D0002C
:1040000000400D0094530D00000006000C00050157
:084010000401BD0B00000000DB
:0440180034510D0012
:10401C0009480A49884208B505D0094A824202D0AB
:10402C00121A01F00BF80748074A0021121A01F086
:10403C0013F8014808BD00BFB4E5032004530D007C
:10404C001CE603201CE60320F0E7032070B5074EA6
:10405C00074C00F059FCA41BA4080025A54200D174
:10406C0070BD56F8043B98470135F7E7D4520D0064
:10407C00F8520D0000F078B808B500F0B5F8BDE8BE
:10408C00084000F003BC00F0B5BA00F0BBBA0078F1
:10409C00B0FA80F04009704701230370704708B5EF
:1040AC007D2000F0B9FB0121072000F056FF7D2098
:1040BC0000F0B2FB0021072000F04FFFF0E710B535
:1040CC000446006808B100F09DFA204610BD0000BF
:1040DC0038B5104D2B8801332B8000F01BFD0021CF
:1040EC00022000F003FA00F011F900F013FD0A228F
:1040FC002988044600F059FB204600F04AFB0021B9
:10410C00022000F0F3F900F009F94FF4FA7000F016
:10411C0083FBDFE72CE6032038B5124D00F0C8FF17
:10412C0000EB80004000288000F0F4FC002102200D
:10413C0000F0DCF900F0EAF800F0ECFC0A22298827
:10414C00044600F032FB204600F023FB0021022045
:10415C0000F0CCF900F0E2F84FF47A7000F05CFB60
:10416C00DCE700BF34E6032037B500244FF480654C
:10417C000121072000F0E0FECDE90045104B11496C
:10418C001148022200F092F8CDE900450F4B10497E
:10419C001048022200F08AF80F4B104910480222F6
:1041AC00CDE9004500F082F80E4800F087F800F0E9
:1041BC00B1FC4FF4165103B0BDE8304000F09EBC8A
:1041CC0025410D0048510D0038E60320DD400D005F
:1041DC0050510D003CE60320AB400D0058510D0032
:1041EC0040E6032030E6032010B5044C206800F0B4
:1041FC006DF82068BDE8104000F070B830E6032080
:10420C0038B50A4C0A4BA360002503202560A58015
:10421C00A57100F053F90749074A204600F0F6FE55
:10422C0029460120BDE8384000F058B920E60320AB
:10423C000000FFFFCB400D001CE6032008B5024B2D
:10424C001B689B68019308BD6802030008B5024B0C
:10425C001B68DB68019308BD6802030008B5024BBC
:10426C001B689B68019308BD2C02030008B5024B28
:10427C001B68DB68019308BD2C02030008B5024BD8
:10428C001B681B69019308BD2C02030008B5024B87
:10429C001B685B68019308BD1802030008B5024B4C
:1042AC001B685B69019308BD1802030008B5024B3B
:1042BC001B685B68019308BD4802030008B5024BFC
:1042CC001B681B6B019308BD4802030008B5024B29
:1042DC001B689B6B019308BD4802030008B5024B99
:1042EC001B681B6C019308BD4802030008B5024B08
:1042FC001B685B6C019308BD4802030008B5024BB8
:10430C001B689B6C019308BD4802030008B5024B67
:10431C001B68DB6C019308BD4802030008B5024B17
:10432C001B685B6D019308BD4802030008B5024B86
:10433C001B685B69019308BD6402030008B5024B5E
:10434C001B681B68019308BD3C02030008B5024BB7
:10435C001B68DB68019308BD3C02030008B5024BE7
:10436C001B681B69019308BD3C02030008B5024B96
:10437C001B685B69019308BD3C02030008B5024B46
:10438C001B689B69019308BD3C02030008B5024BF6
:10439C001B68DB69019308BD3C02030008B5024BA6
:1043AC001B681B6A019308BD3C02030008B5024B55
:1043BC001B689B6A019308BD3C02030008B5024BC5
:1043CC001B681B6A019308BD2802030008B5024B49
:1043DC001B685B6A019308BD2802030008B5024BF9
:1043EC001B689B6A019308BD2802030008B5024BA9
:1043FC001B68DB6A019308BD2802030008B5024B59
:10440C001B681B6B019308BD2802030008B5024B07
:10441C001B685B6B019308BD2802030008B5024BB7
:10442C001B681B6C019308BD2802030008B5024BE6
:10443C001B68DB69019308BD3002030008B5024B11
:10444C001B681B6A019308BD3002030008B5024BC0
:10445C001B681B68019308BD4C02030008B5024B96
:10446C001B685B68019308BD4C02030008B5024B46
:10447C001B681B69019308BD4C02030008B5024B75
:10448C001B685B69019308BD4C02030008B5024B25
:10449C001B689B69019308BD4C02030008B5024BD5
:1044AC001B68DB69019308BD4C02030008B5024B85
:1044BC001B681B6A019308BD4C02030008B5024B34
:1044CC001B685B68019308BD2002030008B5024B12
:1044DC001B685B69019308BD2002030008B5024B01
:1044EC001B68DB6A019308BD2002030008B5024B70
:1044FC001B685B6B019308BD2002030008B5034BDE
:10450C001B68D3F88830019308BD0000200203001B
:10451C0008B5034B1B68D3F89430019308BD000019
:10452C002002030008B5024B1B685B68019308BDB1
:10453C004002030008B5024B1B689B68019308BD41
:10454C004002030008B5024B1B68DB68019308BDF1
:10455C004002030008B5024B1B681B69019308BDA0
:10456C004002030008B5024B1B685B69019308BD50
:10457C004002030008B5024B1B689B69019308BD00
:10458C004002030008B5024B1B68DB69019308BDB0
:10459C004002030008B5024B1B681B6A019308BD5F
:1045AC004002030008B5024B1B681B6B019308BD4E
:1045BC004002030008B5024B1B685B6B019308BDFE
:1045CC004002030008B5024B1B681B6C019308BD2D
:1045DC004002030008B5024B1B685B6C019308BDDD
:1045EC004002030008B5024B1B68DB6B019308BD4E
:1045FC004402030008B5024B1B681B68019308BDFD
:10460C001C02030008B5024B1B685B68019308BDD4
:10461C001C02030008B5024B1B685B6C019308BDC0
:10462C001C020300002240681146FFF7B3BF0022B2
:10463C0040681146FFF7BEBF40680022FFF7B2BFCB
:10464C004068002281F00101FFF79CBF0023406805
:10465C001A461946FFF78EBF002340681A461946C2
:10466C00FFF780BF002240681146FFF773BF00229E
:10467C0040681146FFF75EBF406800220221FFF739
:10468C0061BF002340681A46FFF74CBF024B032260
:10469C005A60024A1A60704744E6032068510D00C4
:1046AC0010B5044608462170FFF7C0FE0023636076
:1046BC00204610BD10B5094B094C022200201A608F
:1046CC00084B2060A080A071A360FFF7F7FE204686
:1046DC00054A0649BDE8104000F098BC58E6032096
:1046EC004CE603200000FFFF1CE60320CB400D002E
:1046FC0010B50446006808B1FFF700FE204610BD57
:10470C0010B58368044613B103220146984720462E
:10471C0010BD000010B5064C002320462360FFF7A7
:10472C00E5FD2046034A0449BDE8104000F06EBC8C
:10473C005CE603201CE60320FD460D00F8B506469A
:10474C000D468F180024BD420CD0336815F8011BA0
:10475C009B6830469847031E01DB1C44F3E7002C92
:10476C0008BF1C462046F8BD13B50446084659B18F
:10477C00019100F0D1FC23680199DB6802462046C8
:10478C0002B0BDE81040184702B010BD03689B682A
:10479C00184738B50D210546FFF7F8FF0A210446E6
:1047AC002846FFF7F3FF204438BD30B58BB000230B
:1047BC008DF82430012A98BF0A2209AC0D46B1FBB2
:1047CC00F2F101FB125303F0FF03092B94BF3033BA
:1047DC003733DBB2AA4204F8013DEFD92146FFF78B
:1047EC00C3FF0BB030BD002340681A461946FFF7D3
:1047FC00B9BE0000014B024A1A60704760E6032004
:10480C009C510D00024B1A68024B1A60704700BF96
:10481C00B4E5032064E603200021FFF757BE10B572
:10482C000446FFF76DFF204610BD00000348044A04
:10483C0004490023836000F0E9BB00BF68E6032055
:10484C001CE603202B480D00014B1860704700BF7D
:10485C00B8E5032008B50B4B43B100F05BF90368D6
:10486C001B699847002801DDAFF30080064B43B16C
:10487C0000F0CEF903681B699847002801DDAFF3FF
:10488C00008008BD000000000000000008B5FFF724
:10489C00E1FFFFF703FD014B186008BDD4E70320CF
:1048AC000248034A0349121A00F0C8BB00F4032063
:1048BC0004F4032000530D0007B5002300931A469F
:1048CC006FF07701FFF724FE03B05DF804FB0000E6
:1048DC0007B543880A2B08D0502B0BD1094B1B680A
:1048EC004BB103B05DF804EB1847FFF7E5FF03B0DD
:1048FC005DF804FB002300931A466FF07701FFF775
:10490C0007FEF4E77CE6032038B5124C1248134D31
:10491C000021FFF77FFE2368AB42114B0CBF012235
:10492C0000221A7002D0FFF7BBFF2560FFF7AEFC28
:10493C00044600F099FB0B4B13B12046AFF30080FB
:10494C0000210848FFF74EFEBDE83840064800211C
:10495C00FFF7D4BD00F4032055480D001E1C279A08
:10496C0078E6032000000000DD480D00704710B50C
:10497C001821044600F04FFB204610BDF0B5037D16
:10498C00062B8DB00E4600F104074FF0000412D038
:10499C0000F1080515F8011D0A223046FFF705FF46
:1049AC00AF42044419D0002CF4D02E213046FFF72E
:1049BC00EDFE0444EEE72F236A4639460A208DF8B3
:1049CC000040FFF7B3FC684600F0A6FB33680246D4
:1049DC00DB68694630469847044620460DB0F0BD6A
:1049EC0010B5054B0446112240F8043B002100F0A1
:1049FC0033FB204610BD00BFC4510D000346074ACF
:104A0C0010B543F8042B01F1100251F8044B43F894
:104A1C00044B9142F9D10A781A7010BDC4510D00A3
:104A2C0010B59DF8084044EA032343EA024242EAE7
:104A3C00016104234160037510BD000013B5054BE3
:104A4C000360CB7800938B784A780978FFF7E8FFFE
:104A5C0002B010BDC4510D0041747047704708B5C9
:104A6C000021007CFFF712FD40EAE07008BD08B59C
:104A7C000121007CFFF70AFD40EAE07008BD08B593
:104A8C00007CFFF7FBFC20EAE07008BD08B5007C59
:104A9C00FFF7ECFC20EAE07008BD13B50446007C7F
:104AAC000191FFF7EBFC0028019901DC607C20B13F
:104ABC00207CFFF7F3FC20EAE07002B010BD007C14
:104ACC00FFF7F4BC10B51421044600F0A4FA2046FC
:104ADC0010BD000010B54FF47A730446084600214F
:104AEC00C4E90113044B2360012320746374114641
:104AFC00FFF7ACFC204610BDD8510D00007C002205
:104B0C00FFF7ACBC10B514220446002100F0A4FA47
:104B1C00204610BD10B5104C88B003A8FFF7F2FF6B
:104B2C002178BFF35B8F11F0010111D12046019167
:104B3C00FFF7ADFA019958B103AA0848FFF7CAFF6D
:104B4C002046FFF7A9FA064A0649044800F05EFA27
:104B5C00024808B010BD00BF80E6032084E60320A5
:104B6C001CE60320694A0D0070474174704708B574
:104B7C00007CFFF71BFC20EAE07008BD08B5007C48
:104B8C00FFF7ECFB20EAE07008BD08B5007CFFF7EE
:104B9C00F5FB40EAE07008BD08B5007CFFF7E6FBCA
:104BAC0040EAE07008BD007CFFF7F0BB37B5457CF0
:104BBC0004462DB1207C03B0BDE83040FFF7C6BBE6
:104BCC00007C0191FFF7F2FB00280199F2DC2846EA
:104BDC0003B030BD10B51421044600F01CFA204679
:104BEC0010BD000010B54FF0000C044608461146ED
:104BFC004FF47A72C4E901C2044A22600122207483
:104C0C0062741A46FFF79AFB204610BD08520D003D
:104C1C0013B50E4C2178BFF35B8F11F0010112D14B
:104C2C0020460191FFF733FA019960B1084A094B0C
:104C3C000948FFF7D7FF2046FFF72EFA074A084925
:104C4C00054800F0E3F9044802B010BD98E60320D3
:104C5C009CE6032020E70320A4E703201CE60320A6
:104C6C00754B0D007047F8B5064615460C468F1867
:104C7C00BC4206D0336814F8011B9B683046984739
:104C8C00F6E72846F8BD007C0022FFF797BB007CB6
:104C9C000021FFF79BBB007C0021FFF79FBB007C32
:104CAC000021FFF7A3BB007C0021FFF7A7BB10B5C9
:104CBC001421044600F0AFF9204610BD10B54FF496
:104CCC007A73044608460021C4E90113034B2360A0
:104CDC0020741146FFF7A2FB204610BD38520D0080
:104CEC00002240681146FFF735BC0022406811468F
:104CFC00FFF750BC002240681146FFF75BBC4068D0
:104D0C000022FFF74FBC4068002281F00101FFF741
:104D1C0039BC002340681A461946FFF72BBC002209
:104D2C0040681146FFF706BC406800220221FFF7DD
:104D3C0009BC002340681A46FFF7F4BB024B04225F
:104D4C005A60024A1A607047B8E7032060520D009F
:104D5C00002340681A46FFF7E5BB40680022022199
:104D6C00FFF7F0BB002240681146FFF7E3BB0022BF
:104D7C0040681146FFF7EEBB002340681A461946FF
:104D8C00FFF7F0BB002340681A461946FFF7F2BB49
:104D9C0040680021FFF716BC40680021FFF71ABCE1
:104DAC004068002281F00101FFF7ECBB4068002253
:104DBC00FFF7F8BB002240681146FFF7FBBB00224F
:104DCC0040681146FFF7E6BB2DE9F043002495B08F
:104DDC0016460D460746FFF703FE214618220EA87D
:104DEC00009400F039F94023CDE90C3421466B4690
:104DFC000CAA3046FFF72AFA044600284CD102468A
:104E0C0001216868FFF7A6FB0221804622466868EC
:104E1C00FFF7A0FB009E81462146002E3CD00029C6
:104E2C003AD17368022B03D00A2B11D0F669F4E740
:104E3C00B8F1000F0AD0716906A8043107ADFFF76D
:104E4C00FDFD0FCD3C1D0FC42B6823704146EDE7D3
:104E5C00B9F1000F01D14946E8E77469102201A8A5
:104E6C0000F0FAF806238DF8143001AD04F10803B4
:104E7C001834186859682A4603C20833A3421546E9
:104E8C00F7D101A906A807ADFFF7B8FD0FCD3C1D62
:104E9C000FC42B682370DEE70098FFF7CFF9384674
:104EAC0015B0BDE8F0830000024B034A1A600022E3
:104EBC005A607047C0E703209C520D00232813B59D
:104ECC0002D9002002B010BDA0F10B03022B1AD89E
:104EDC00174C2178BFF35B8F11F001010BD12046E9
:104EEC000191FFF7D4F8019928B11248FFF7D8FBCC
:104EFC002046FFF7D1F80F4B1878FFF79FFA0028E0
:104F0C00DFD10120DEE7012809D800F057F8002195
:104F1C00007CFFF77BFA80F00100C0B2D2E70938C1
:104F2C000128EED8FFF774FE007CFFF737FAF2E7A2
:104F3C00C8E70320CCE70320232838B504460D46E8
:104F4C000AD8FF2908D0FFF7B9FF28B12946204617
:104F5C00BDE83840FFF782B938BD38B504460D4678
:104F6C00FFF784F9FF2810D0062804D84D2323FA24
:104F7C0000F0C30709D42046FFF7A0FF28B129464B
:104F8C002046BDE83840FFF779B938BD38B5002365
:104F9C00202543801423044603808560056106495F
:104FAC00284600F03AF804496060284600F035F8CD
:104FBC00E060204638BD00BFD0520D0030B50F4D1B
:104FCC002978BFF35B8F11F0010487B013D1284609
:104FDC00FFF75DF878B101A8FFF7D8FF01AA2146C9
:104FEC000748FFF76BFE2846FFF756F8054A0649B7
:104FFC00034800F00BF8024807B030BDD8E7032097
:10500C00DCE703201CE60320714C0D000B46014627
:10501C00184600F005B8FFF738B8FFF734B80000B1
:10502C0010B5054C13462CB10A4601460220AFF3CD
:10503C00008010BD2046FCE7000000000A449142AD
:10504C0000F1FF3300D1704710B511F8014B03F894
:10505C00014F9142F9D110BD02440346934200D155
:10506C00704703F8011BF9E738B50D4B1D68AB6BA6
:10507C0004467BB91820FFF7BDFA0A4A0A4BA8630D
:10508C00C0E90023094B83600B2383810122002399
:10509C00C0E90423AB6B00221C615A6138BD00BF10
:1050AC00B8E503200E33CDAB34126DE6ECDE050013
:1050BC00134B10B51C68A36B7BB91820FFF79AFA39
:1050CC00104A114BA063C0E90023104B83600B23E3
:1050DC00838101220023C0E90423A16B0C480A69D7
:1050EC004B690C4C504304FB0300A2FB04345A1CC8
:1050FC00044444F10000C1E9042020F0004010BD3C
:10510C00B8E503200E33CDAB34126DE6ECDE0500B2
:10511C002DF451582D7F954C034613F8012B002A82
:10512C00FBD1181A013870471D400D0059400D0075
:10513C0081400D0085400D00000000007468726510
:10514C006164310074687265616432007468726500
:10515C006164330000000000000000008F460D0069
:10516C0085460D007B460D0071460D0065460D0011
:10517C0059460D009D4D0D00A54D0D004D460D00E1
:10518C0045460D003B460D0031460D00D54D0D003A
:10519C006170700025592D256D2D25645425483AD4
:1051AC00254D3A2553257A0061736374696D65004A
:1051BC00000000000000000089490D0079490D0035
:1051CC007B490D000000000000000000694A0D0042
:1051DC00D14A0D00A74A0D0049470D00994A0D0010
:1051EC006B4A0D007B4A0D00CB4A0D008B4A0D001B
:1051FC00654A0D000000000000000000754B0D001A
:10520C00E14B0D00B94B0D0049470D00894B0D00CA
:10521C00A54B0D00974B0D00B34B0D00774B0D00BC
:10522C007B4B0D000000000000000000714C0D00D5
:10523C00BB4C0D00934C0D00734C0D009B4C0D00A2
:10524C00A34C0D00AB4C0D00B34C0D000000000046
:10525C00000000003F4D0D00354D0D002B4D0D0095
:10526C00ED4C0D00F3470D001F4D0D009D4D0D0035
:10527C00A54D0D00134D0D000B4D0D00014D0D00F6
:10528C00F74C0D00D54D0D00000000000000000093
:10529C005D4D0D00674D0D00714D0D007B4D0D00EA
:1052AC00854D0D00914D0D009D4D0D00A54D0D0032
:1052BC00AD4D0D00B94D0D00C14D0D00CB4D0D0088
:1052CC00D54D0D00000000000D420D0099460D005B
:1052DC00C1460D0021470D0001480D0011480D007D
:1052EC0039480D00494D0D00B54E0D000000000071
:0452FC0000000000AE
:0453000000000000A9
:10530400B4510D00BCE503200000000000000000C3
:105314000000000000000000000000000000000089
:105324000000000000000000000000000000000079
:105334000000000000000000000000000000000069
:105344000000000000000000000000000000000059
:105354000000000000000000000000000000000049
:08536400000000000000000041
:10536C00FFFFFFFF00000102030405060708090AFE
:10537C000B0C0D0E0F101112131415161718191AF9
:08538C001B1C1D1E1F20280040
:045394007856341201
:04000003D000401CCD
:00000001FF
